:020000040800F2
:100000009005002045010008D3200008EB1B0008E4
:10001000D1200008790500084527000800000000ED
:10002000000000000000000000000000D7200008D1
:100030007B05000800000000D5200008D92000083A
:100040005F0100085F0100085F0100085F01000810
:100050005F0100085F0100085F0100085F01000800
:100060005F0100085F0100085F0100085F010008F0
:100070005F0100085F0100085F0100085F010008E0
:100080005F0100085F0100085F0100085F010008D0
:100090005F0100085F0100085F0100085F010008C0
:1000A0005F0100085F0100085F0100085F010008B0
:1000B0005F010008992100085F0100085F01000846
:1000C0005F0100085F0100085F0100085F01000890
:1000D0005F0100085F0100085F0100083927000880
:1000E0005F0100085F0100085F0100085F01000870
:1000F0005F0100085F0100085F0100085F01000860
:100100005F0100085F0100085F0100085F0100084F
:100110005F0100085F0100085F0100085F0100083F
:100120005F0100085F0100085F0100085F0100082F
:10013000DFF80CD000F00EFA00480047D127000885
:10014000900500200648804706480047FEE7FEE786
:10015000FEE7FEE7FEE7FEE7FEE7FEE7FEE7FEE777
:100160005121000831010008202A04DB203A21FA3D
:1001700002F00021704721FA02F3D040C2F12002C0
:100180009140084319467047D2B201E000F8012BB4
:10019000491EFBD270470022F6E710B513460A4607
:1001A00004461946FFF7F0FF204610BD2DE9FE4F2B
:1001B000804681EA0300C00F0C46009021F0004108
:1001C00023F00045B8EB0200A94105D24046214684
:1001D00090461C460B46024623F00040104347D091
:1001E000270DC7F30A00C3F30A510290401A019089
:1001F00040286BDAC3F3130040F4801B009892464A
:1002000020B10023D2EB030A63EB0B0B0198594694
:10021000C0F14002504600F01FF906460D46504618
:100220005946019A00F027F910EB080061410024BB
:1002300087EA115284EAE7731A4340D0009A62B306
:10024000019A012A4FEA075215DC001B61EB0201FB
:100250004FF0004202EA0752CDE90042001C41F58E
:10026000801132462B4600F027F903B0BDE8F08F2D
:1002700040462146F9E7001B61EB0201001C41F5F5
:10028000801300185B412018A2F5001747EB03010B
:1002900040EAD570B6196D4111E06D084FEA360697
:1002A00045EAC0754FEA0752001B61EB0201001CD2
:1002B00041F5801149084FEA30000019514132469A
:1002C0002B4603B0BDE8F04F00F0E7B800980122DC
:1002D00040000023D0EB020263EBE073009821465C
:1002E0004FEAE074B8EB000061EB0401E9E783F04A
:1002F00000435BE781F0004158E72DE9FE4F81EABA
:10030000030404F0004421F0004100944FF0000B7E
:1003100023F0004350EA01045ED052EA03045BD0AC
:10032000C3F30A54C1F30A552C44A4F2F3340194E4
:10033000A0FB0254C1F3130141F48011C3F3130372
:1003400043F4801301FB024400FB034E840A970A26
:1003500044EA815447EA8357A4FB076802958D0A53
:1003600005FB07854FEA932C04FB0C542705029DDF
:100370004FEA065847EA1637B5EB08056EEB070C4F
:10038000870E920E47EA811742EA8312A7FB020109
:10039000B6EB0B0164EB00042B0D43EA0C335E1843
:1003A00044EB1C50DA465146E7FB0201C5F3130447
:1003B0004FEA0B3343EA14534FEA0432019C43EAF9
:1003C0000603A4F10C040294009CCDE900B400F0F3
:1003D00073F803B0BDE8F08F00200146F9E70EB5D1
:1003E000C10F80EAE0700844CA07002140F233439D
:1003F0008DE80E000A460B4600F05EF803B000BD23
:100400000EB540F2334102910021CDE900110A46B8
:100410000B4600F051F803B000BD70B5C1F30A52AD
:1004200001F000450024C1F3130140F2FF3341F411
:1004300080119A4201DA002070BD40F233439A42A3
:10044000A2F2334203DC5242FFF78EFE00E09040FE
:100450002C43F1D0404270BD202A04DB203A00FA40
:1004600002F1002070479140C2F1200320FA03F30B
:10047000194390407047202A06DBCB17203A41FAF7
:1004800002F043EAE07306E041FA02F3D040C2F121
:100490002002914008431946704710B5141E73F1AD
:1004A000000408DA401C41F1000192185B411A4334
:1004B00001D120F0010010BD2DE9F04D92469B4680
:1004C00011B1B1FA81F202E0B0FA80F22032904626
:1004D000FFF7C2FF04460F4640EA0A0041EA0B015B
:1004E00053465A46084313D0114653EA010019D027
:1004F000C8F140025046FFF737FE05460E4650460B
:1005000059464246FFF7A8FF084305D0012004E002
:1005100020463946BDE8F08D0020054346EAE076E6
:100520002C4337430A986305E40AA0EB0800002235
:10053000FD0A44EA47540A3002D500200146E9E7A3
:10054000010510196941DDE9084500196941BDE857
:10055000F04DA2E7064C074D06E0E06840F00103CD
:1005600094E8070098471034AC42F6D3FFF7E4FD57
:10057000CC280008EC280008FEE7704701A002F034
:10058000E3B80000B7A2C9FAB4EDCEF30000000052
:100590002DE9F05F90F821100024022903D00421F6
:1005A0008163012485E001680A6822F00E020A6076
:1005B00001680A6822F001020A603F4E3E4FB21500
:1005C000DFF8F4C0DFF8F090DFF8ECA0DFF8E8B077
:1005D000DFF8E4E00168783F13011502ACF1640C28
:1005E000A9F15009AAF13C0AABF1280BAEF1140EA7
:1005F0004FF48018B14227D9B9420ED0614512D0CC
:1006000049451DD0514518D0594518D0714501D1E3
:10061000424615E0294EB14201D1012210E0274E99
:100620001436B14201D110220AE0244E2836B142DC
:1006300006D0224A3C32914201D11A4600E02A46B5
:100640001E49091F0A602BE0B94213D0614517D03B
:10065000494522D051451DD059451DD0714501D184
:1006600042461AE0B14202D14FF0807215E0134EBB
:10067000B14201D1012210E0104E1436B14201D135
:1006800010220AE00D4E2836B14206D00B4A3C3209
:10069000914201D11A4600E02A46074980394A6052
:1006A000012180F82110002180F82010416B01B158
:1006B00088472046BDE8F09F8000024008040240C1
:1006C00070B5044600F014F90546601C02D00448D9
:1006D0000078044400F00CF9401BA042FAD370BD2E
:1006E000100000202DE9F84FDFF8C891002409F12F
:1006F000040A0AF1040B23460F270BF1040ED1E084
:100700000125A54006EA0502AA4276D1DFF8A8C174
:100710004E68A6EB0C0866452BD00DDC032E34D0BA
:1007200005DC36B3012E19D0022E2FD11BE0112E7D
:1007300016D0122E2AD119E0B8F5881F19D006DC80
:10074000B8F5803F15D0B8F5801F1FD111E0B8F57E
:10075000001F0ED0B8F5041F18D10AE0CB6815E0D1
:10076000CB681B1D12E0CB6808330FE0CB680C335D
:100770000CE08B682BB1012B4FF0080303D04561CF
:1007800004E0042302E0056100E00023FF2A01D811
:10079000064601E000F104064FEA840501D9A5F1FF
:1007A0002005D6F8008007FA05FC28EA0C0803FAB1
:1007B00005F548EA0508C6F800804D68ED0070D5DB
:1007C0003E4DAE6946F00106AE61AD6924F0030608
:1007D00005F0010500953A4D06EB050CDCF80850D4
:1007E000A607360F07FA06F825EA0805DFF8D480D1
:1007F000404503D14FF0000825E052E0DFF8C88003
:10080000404502D14FF001081DE0DFF8C0804045AF
:1008100002D14FF0020816E0DFF8B480404502D163
:100820004FF003080FE0DFF8AC80404502D14FF0F5
:10083000040808E0DFF8A080404502D14FF0050829
:1008400001E04FF0060808FA06F848EA0508CCF877
:1008500008804D68D9F80060ED034D4601D5164378
:1008600000E096432E604D68DAF80060AD0355460F
:1008700001D5164300E096432E604D68DBF800601A
:10088000ED025D4601D5164300E096432E604D68AB
:10089000DEF80060AD02754601D5164300E09643D0
:1008A0002E60641C0A681646E2407FF429AFBDE85A
:1008B000F88F0000000401400000111000100240F9
:1008C0000000014000080140000C01400010014000
:1008D0000014014000180140001C014080680840DD
:1008E00000D0012070470AB1016170470904FBE79D
:1008F00001488068704700001000002002488168AD
:10090000027811448160704710000020074810B53C
:10091000016841F010010160032000F093F800200D
:1009200000F006F800F024F8002010BD002002407E
:1009300070B50D4D04464FF47A712878B1FBF0F094
:100940000A490968B1FBF0F000F064FB48B9102CCB
:1009500007D200222146501E00F054F800206C609F
:1009600070BD012070BD0000100000201C000020A0
:100970001B4808B5816941F001018161816901F07D
:1009800001010091C16941F08051C161C06900F06D
:10099000805000901348416821F0E06141F080717F
:1009A0004160002211466FF00B0000F02BF800228E
:1009B00011466FF00A0000F025F8002211466FF092
:1009C000090000F01FF800221146101F00F01AF86D
:1009D0000022BDE808401146501E00F013B8000088
:1009E0000010024000000140002809DB00F01F0257
:1009F000012191404009800000F1E020C0F8001181
:100A000070470000F0B40E4B1B680C46C3F3022382
:100A1000C3F10705042D00D90425191D072901D2AA
:100A2000002300E0DB1E012606FA05F1491E2140E5
:100A300099409E40761E16403143F0BC01F08CBEBA
:100A40000CED00E0064900F0070208684FF6FF03CE
:100A5000184040EA0220034A104308607047000033
:100A60000CED00E00000FA052DE9F0470F46050007
:100A700061D0434E306800F00700B84209D23068B8
:100A800020F0070038433060306800F00700B842BB
:100A900051D128683B4C810712D5400703D56068C7
:100AA00040F4E06060602878000703D5606840F497
:100AB000605060606068A96820F0F00008436060E2
:100AC0002878C00728D06868012810D0216802283B
:100AD00010D0890700292EDA616821F00301014353
:100AE0006160FFF705FF804641F288390DE021681B
:100AF0008903EFE78901EDE7FFF7FAFEA0EB0801B4
:100B0000494502D90320BDE8F0876068696800F0B4
:100B10000C00B0EB810FEFD1306800F00700B84255
:100B20000BD9306820F0070038433060306800F09F
:100B30000700B84201D00120E5E72878400705D535
:100B40006068E96820F4E060084360602878000786
:100B500006D56068296920F4605040EAC1006060F1
:100B600000F038F86168084AC1F30311515CC840CD
:100B70000649086006480068FFF7DAFE0020C2E771
:100B80000020024000100240B42800081C00002091
:100B9000140000200448054900684968044AC1F36C
:100BA0000221515CC84070471C0000200010024028
:100BB000C42800080448054900684968044AC1F38C
:100BC000C221515CC84070471C0000200010024048
:100BD000C428000812A185B00FC98DE80F0014A029
:100BE000144A006804905168134801F00C03042B68
:100BF00010D0082B0ED1C1F38343C9031DF80300A5
:100C00000AD5516804AAC1F34041515C0A4A5043D5
:100C1000B0FBF1F005B0704708494843FAE700001F
:100C200002030405060708090A0B0C0D0E0F10102D
:100C3000010200000010024000127A0000093D008D
:100C40002DE9F84F040070D02078C04DC00749D07E
:100C50006868C0F38100012807D06868C0F381008C
:100C6000022809D16868C00306D52868800339D5F1
:100C700060680028E7D035E06068B0F5803F0BD0B1
:100C800010B1B0F5A02F11D0286820F48030286072
:100C9000286820F4802002E0286840F48030286032
:100CA000606890B1FFF724FE06460AE0286840F429
:100CB00080202860F0E700BFFFF71AFE801B642841
:100CC00073D828688003F7D50CE0FFF711FE0646BD
:100CD00005E000BFFFF70CFE801B6428F0D82868F1
:100CE0008003F7D420789A4E80074FF001094FF027
:100CF000000839D5686810F00C0F07D06868C0F399
:100D00008100022809D16868C00306D428688007DA
:100D100014D52069012808D110E02069B0B1C6F8C7
:100D20000090FFF7E5FD074605E00AE1FFF7E0FD6B
:100D3000C01B0228C4D828688007F7D528686169D5
:100D400020F0F80040EAC10028600DE0C6F80080FD
:100D5000FFF7CEFD074604E0FFF7CAFDC01B0228DF
:100D600023D828688007F7D4207800072CD5794845
:100D7000A169D9B1C0F80090FFF7BAFD074604E0B9
:100D8000FFF7B6FDC01B02280FD8686A8007F7D5A9
:100D900071484FF4FA510068B0FBF1F0009000BFC9
:100DA0000098411E0091FAD20EE080E0C0F8008069
:100DB000FFF79EFD074604E0FFF79AFDC01B0228DF
:100DC00075D8686A8007F7D42078400760D5E8694D
:100DD0000027C00008D4E86940F08050E861E86965
:100DE000012700F0805000905C480168C90513D4C9
:100DF0000168834641F480710160FFF779FD824606
:100E000006E000BFFFF774FDA0EB0A0064284ED88F
:100E1000DBF80000C005F5D5E06801280AD008B16C
:100E2000052813D0286A20F001002862286A20F0E3
:100E3000040002E0286A40F001002862E06841F204
:100E4000883B98B1FFF754FD82460BE0286A40F0DA
:100E500004002862EEE700BFFFF74AFDA0EB0A019D
:100E600059455AD8286A8007F6D50CE0FFF740FDAF
:100E7000824605E0FFF73CFDA0EB0A0159454CD83E
:100E8000286A8007F6D41FB1E86920F08050E86135
:100E9000E06988B36968C1F38101022944D002285E
:100EA000C6F8608004D0FFF723FD044638E034E044
:100EB000FFF71EFD074604E0FFF71AFDC01B0228DE
:100EC0002BD828688001F7D4206AB0F5803F05D17F
:100ED0006868A16820F4003008436860D4E908011C
:100EE0000843696821F4741108436860C6F860908B
:100EF000FFF7FEFC044606E025E000BFFFF7F8FC24
:100F0000001B022809D828688001F7D51BE000BF24
:100F1000FFF7EEFC001B022802D90320BDE8F88F82
:100F200028688001F4D40EE00128F7D06868226AAE
:100F300000F48031914204D1616A00F4701088425B
:100F400001D00120EAE70020E8E70000001002409D
:100F500000004242800442421C0000200070004019
:100F60007FB5234CE088401CE0802078002538B114
:100F7000E088B0F5FA6F03D11EA001F0E5FBE58033
:100F80002078002832D06088401C60806088C828A3
:100F90002CD1A0680090A56000F028FE019010F10F
:100FA000030F01DB032803DDA08801990844A0801A
:100FB000A088B0F5617F02D34FF4FA70A080144886
:100FC00000680068FFF70BFACDE902010098FFF70F
:100FD00017FACDE90201A2880221012000F094FE57
:100FE000A2880221084600F08FFE65807FBD0000C8
:100FF00000000020BDF8C8EBB5CEB4F0B6A8CAB169
:10100000C6F7D6D0B6CFBAAFBBD8B5F7CAFD0A007F
:101010000C00002010B5401EB0F1807F01D30120EC
:1010200010BD4FF0E02460610F21601701F094FBC8
:101030000020A06107202061002010BD10B5FFF73F
:101040008FFF10BD7047704710B590F83C20012A03
:1010500022D0012280F83C20CA688C6822F44072B9
:1010600022434C6822F4806222430C6822F400621E
:1010700022430C6922F4805222434C6922F400522C
:101080002243C969002322F480420A4301684A646A
:1010900080F83C30002010BD022010BD70B590F8E3
:1010A0003C20012A19D0012400F83C4F0222427052
:1010B00050F83C3C5A689D6822F070060A684968FE
:1010C000324325F0800529435A6050F83C2C91604A
:1010D000447000210170084670BD022070BD10B53B
:1010E00004460068042201F0B0F82068416C41F425
:1010F000004141642068816801F00701062903D09E
:10110000016841F001010160002010BD10B50446E6
:101110000068002201F099F82068036A41F2111179
:101120000B4240F2444206D1036A134203D1436C9E
:1011300023F4004343642068036A0B4206D1016A2A
:10114000114203D1016821F001010160002010BDAE
:1011500010B5040003D094F83D0010B107E0012061
:1011600010BD002084F83C00204600F00DF802205D
:1011700084F83D00211D206801F014F8012084F856
:101180003D00002010BD000010B586B00024009482
:10119000019402940394264A01682648914207D19B
:1011A000816941F400618161806900F400603CE084
:1011B000214A91422FD1C16941F00201C161C16947
:1011C00001F002010491816941F0040181618169AA
:1011D00001F004010491816941F008018161806995
:1011E000694600F008000490802000901348FFF743
:1011F00079FA0220CDE90004694611480294FFF70C
:1012000071FA002201211D20FFF7FCFB1D20FFF7D2
:10121000EBFB06B010BD0B4A9142FAD1816941F453
:1012200000518161806900F400500490F1E70000F2
:10123000002C014000100240000400400008014062
:10124000000C014000340140022180F83D1001688B
:101250008A6802F00702062A03D00A6842F00102F7
:101260000A60012180F83D100020704770B50446E7
:1012700090F83C00012817D0012584F83C5002204A
:1012800084F83D002068826822F0770222F47F42D1
:1012900082600868502830D00DDC20284DD005DC55
:1012A00098B310283BD148E0022070BD302844D0CC
:1012B000402834D139E0602828D0702806D0B0F515
:1012C000805F2CD0B0F5005F29D10AE0CB68D1E96E
:1012D0000121206800F0C6FF2068816841F0770195
:1012E00009E0CB68D1E90121206800F0BBFF20684C
:1012F000816841F48041816011E0CA6849682068D2
:1013000001F084F85021206807E016E0CA684968B7
:10131000206801F0C3F86021206800F0ADFF84F878
:101320003D50002084F83C0070BDCA6849682068C0
:1013300001F06CF840212068EFE722680146104672
:10134000EBE7000003488168491C816002A001F0BE
:10135000FBB9000000000020B6A8CAB1C6F7B2B6BB
:10136000BBF1D6D0B6CF0A002DE9F041044690F883
:101370003C000D4601283BD0012684F83C60022049
:1013800084F83D009AB3042A44D02068082A53D038
:10139000D5E90027E968036A23F480530362D0F893
:1013A0001CC0036A2CF4407C4CEA07274FF6FF7CF4
:1013B00027F470470CEA01313943770323F40053D3
:1013C00007EA02321A43C16102622068C16921F44E
:1013D0004061C1612068C169AA6841EA0221C16116
:1013E00084F83D60002084F83C00BDE8F08101E015
:1013F0000220FAE7D5E90012EB68206801F018F83E
:101400002068816921F00C01816120688169AA68E6
:1014100011430FE0D5E90012EB68206801F050F8A5
:101420002068816921F44061816120688169AA682E
:1014300041EA02218161D3E7D5E9002C2F7B016AC3
:1014400021F480710162C169036A21F0030141EA5C
:101450000C0121F0F00C39074FF400774CEA1161D0
:1014600023F4007307EA02221A43C1610262206872
:10147000C16921F00C01C1612068C169AA681143EA
:10148000ADE710B5040003D094F83D0010B107E0BB
:10149000012010BD002084F83C00204600F00CF82C
:1014A000022084F83D00211D206800F07BFE012011
:1014B00084F83D00002010BD704710B50268044656
:1014C00031B1042908D008291AD00C2908D11BE011
:1014D000D06840F0020002E0D06840F00400D06024
:1014E0000122206800F0A4FE2068816801F0070155
:1014F000062903D0016841F001010160002010BD00
:10150000D06840F00800EAE7D06840F01000E6E755
:1015100070B50446006801694FF00005C9438907AA
:1015200015D4C168C943890711D4E91E016101209E
:101530002077206880698007204602D0FFF702FFED
:1015400004E000F0F7F8204600F079F925772068EC
:101550000169C943490717D4C168C943490713D46E
:101560006FF004010161022020772068806910F487
:10157000407F204602D0FFF7E5FE04E000F0DAF8F5
:10158000204600F05CF9257720680169C943090706
:1015900016D4C168C943090712D46FF0080101616C
:1015A000042020772068C0698007204602D0FFF71A
:1015B000C9FE04E000F0BEF8204600F040F92577AF
:1015C00020680169C943C90617D4C168C943C9065F
:1015D00013D46FF010010161082020772068C069E2
:1015E00010F4407F204602D0FFF7ACFE04E000F08C
:1015F000A1F8204600F023F9257720680169C94346
:10160000C90708D1C168C943C90704D1891E01614E
:10161000204600F065F920680169C943090609D42C
:10162000C168C943090605D46FF0800101612046F5
:10163000FFF708FD20680169C943490609D4C1685C
:10164000C943490605D46FF040010161204600F00E
:1016500048F920680169C94389060BD4C168C943A8
:10166000890607D46FF0200101612046BDE8704073
:10167000FFF7E9BC70BD000030B585B000210091D6
:10168000019102910391254B02682549022503240B
:1016900024489A421DD18A6942F008028A618A6907
:1016A00002F0080204928A6942F004028A618969A0
:1016B000039401F0040104914114CDE90015694639
:1016C000FFF710F8E801CDE90005694603941648D4
:1016D0001FE0164B9A421ED18A6942F008028A61C5
:1016E0008A6902F0080204928A6942F010028A6153
:1016F0008969039401F0100104910121CDE90015DD
:101700006946FEF7EFFF8020CDE9000569460394A6
:101710000748FEF7E7FF05B030BD0000002C014090
:1017200000100240000C014000080140003401405C
:1017300000100140704770B5044690F83C000D461B
:1017400001280DD0012684F83C60022084F83D0079
:1017500042B1042A18D0082A2AD00C2A4DD139E0E7
:10176000022070BD206800F08FFD2068816941F083
:10177000080181612068816921F00401816120688C
:1017800081692A69114311E0206800F0ADFD2068ED
:10179000816941F4006181612068816921F480617F
:1017A0008161206881692A6941EA0221816124E01E
:1017B000206800F0CFFD2068C16941F00801C161D7
:1017C0002068C16921F00401C1612068C1692A69EA
:1017D000114311E0206800F0F1FD2068C16941F477
:1017E0000061C1612068C16921F48061C161206824
:1017F000C1692A6941EA0221C16184F83D60002083
:1018000084F83C0070BD10B5040003D094F83D008E
:1018100010B107E0012010BD002084F83C002046F4
:1018200000F00CF8022084F83D00211D206800F033
:10183000B9FC012084F83D00002010BD70477047BE
:1018400010B504460068012200F0F2FC0B49206844
:10185000884202D00A49884203D1416C41F40041D8
:1018600041642068816801F00701062903D00168FE
:1018700041F001010160002010BD0000002C01407A
:101880000034014010B504460068002200F0D0FC8E
:10189000114841F2111221689310814202D00F4881
:1018A000814209D1086A104206D1086A184203D160
:1018B000486C20F4004048642068016A114206D157
:1018C000016A194203D1016821F001010160012080
:1018D00084F83D00002010BD002C01400034014080
:1018E000704770477047000070B502680446106882
:1018F000D168536910F00F0F50D003F0010501F4C7
:10190000907635435DD0C20705D0CA0503D5E26B9A
:1019100042F00102E263420705D5DA0703D0E26B29
:1019200042F00202E263820705D5DA0703D0E26BD8
:1019300042F00402E263020705D5DA0703D0E26B46
:1019400042F00802E263E26B002A33D0800604D53D
:10195000880602D5204600F0E4FD20684069E16B6E
:10196000C0F38010090700D428B3204600F0CBFD57
:101970002068416949061AD5416921F04001416159
:10198000606BA0B11B494163606BFEF701FE00284C
:1019900010D0606B416BBDE870400847830610D5DE
:1019A0008B060ED52046BDE8704000F0BABD20463B
:1019B000FFF798FF70BD2046FFF794FF0020E0631B
:1019C00070BD030606D50B0604D52046BDE8704061
:1019D00000F04EBE4006F3D54806F1D5D16820464A
:1019E00021F04001D160202184F8391000F0FCF88A
:1019F00070BD0000F724000870B5040004D094F80E
:101A00003900002510B106E0012070BD84F838507F
:101A1000204600F023F8242084F839002068C168AB
:101A200021F40051C160204600F0C6FD2068016924
:101A300021F4904101612068416921F02A0141614E
:101A40002068C16841F40051C160E563202084F83A
:101A5000390084F83A00002070BD000070B586B0EF
:101A60000024009401940294039403682B482A4EA6
:101A7000022103220515B34221D1836943F4804337
:101A80008361836903F480430493836943F004030F
:101A900083618069224E00F0040004900802CDE9C1
:101AA0000001039269463046FEF71CFECDE9005462
:101AB000694630460294FEF715FE06B070BD194E19
:101AC000B342FAD1C36943F48023C361C36903F409
:101AD00080230493836943F0080383618069CDE91F
:101AE000005100F00800CDE903200F4D694628465B
:101AF000FEF7F8FDE814CDE9000469462846029493
:101B0000FEF7F0FD002201212720FEF77BFF2720B2
:101B1000FEF76AFFD1E700000038014000100240E4
:101B20000008014000480040000C014070472DE9CA
:101B3000F843044690F839001F4616460D46202803
:101B400050D1A5B19EB194F8380001284AD00120A7
:101B500084F838004FF00008C4F83C80212084F855
:101B60003900FEF7C5FEA6848146E68426E0012002
:101B7000BDE8F883E08C401EE084A0684B46B0F5D9
:101B8000805F4FF000024FF080012046009703D0A5
:101B900000F09FFDE8B90DE000F09BFDC8B9288872
:101BA0002168C0F308004860206908B16D1C05E099
:101BB000AD1C03E0216815F8010B4860E08C00289B
:101BC000D8D14B46002240212046009700F081FDED
:101BD00008B10320CCE7202084F8390084F838804D
:101BE0000020C5E70220C3E77047FEE72DE9F04774
:101BF00016490C682168A1EB0009606AFEF7EFFB4B
:101C0000A269E369FEF779FB07468846206AFEF77A
:101C1000E6FB22696369FEF770FB05460E464846FF
:101C2000FEF7DDFBA268E368FEF767FB2A46334652
:101C3000FEF75DFB3A464346FEF7B8FAFEF7EDFBCA
:101C4000216A6162C4F82090BDE8F0870C00002092
:101C500009480021006801624162084A084982601F
:101C6000C1600849026141614FF033320649826127
:101C7000C1616421016070470C0000209A99999914
:101C8000999909409999F13F3333C3BF10B50D4C71
:101C900001212046FEF722FE012808D11420FEF77C
:101CA0000FFD01212046FEF719FE012801D000207A
:101CB00010BD01212046FEF711FE0128F9D00120B8
:101CC00010BD00000008014070B50E4D4FF40054E7
:101CD00021462846FEF702FE012808D11420FEF70F
:101CE000EFFC21462846FEF7F9FD012801D000202F
:101CF00070BD21462846FEF7F1FD0128F9D00120EC
:101D000070BD00000010014010B51446012815D028
:101D1000022830D0032821D100212548FFF7B2FD49
:101D200000212348FFF7F2F900212248FFF7AAFD1E
:101D3000BDE8104000211F48FFF7E8B901290ED087
:101D400002291B484FF000010ED0FFF79BFD002138
:101D50001748FFF7DBF916480068446310BD0021FF
:101D60001348FFF76DFDF2E7FFF78CFD00211048E7
:101D7000FFF7B5F9EFE701290ED002290D484FF022
:101D800004010ED0FFF77EFD04210A48FFF7BEF9DB
:101D900008480068846310BD04210648FFF750FD21
:101DA000F2E7FFF76FFD04210248FFF798F9EFE72C
:101DB00024000020A40000202DE9F04186B000247A
:101DC00024480094019402940394816941F04001F5
:101DD0008161816901F040010491816941F0100144
:101DE0008161816901F010010491816941F0040170
:101DF0008161816901F004010491816941F0080168
:101E000081618069DFF8508000F008004FF480772E
:101E10000490002239464046FEF765FD7801022510
:101E20008DE8310069460D48FEF75CFC01260096FE
:101E300069460B48CDE90145FEF754FC0320CDE986
:101E40000240CDE9007669464046FEF74BFC06B0FD
:101E5000BDE8F08100100240000C0140001001407C
:101E60000008014010B596B000240F94109411940E
:101E7000129413941C2108A81494FEF78CF92021C5
:101E80006846FEF788F92C482A4901600121C0E91B
:101E900001144FF46171C0E9031444618461FFF7D8
:101EA00057F910B1254800F04FFC4FF480500F90C7
:101EB0000FA92148FFF7DAF910B1204800F044FCDF
:101EC0001D48FFF7A0FC10B11C4800F03DFC139426
:101ED00013A919481494FFF7E1F810B1174800F05E
:101EE00033FC602008904FF4E170CDE909040B94B5
:101EF0000C940D94002208A90F480E94FFF71BFCC8
:101F000010B10E4800F020FC00944FF40050CDE9D1
:101F10000440029401940394694607480794FFF72C
:101F200093F810B1054800F00FFC0348FFF7A4FB3D
:101F300016B010BD002C01402400002084050008CC
:101F400010B58AB000242948049405940694079497
:101F50000894099400940194029423490394016025
:101F60000B21C0E901144FF6FF71C0E9031484612D
:101F7000FFF7EEF810B11E4800F0E6FB4FF480507A
:101F8000049004A91948FFF771F910B1184800F03E
:101F9000DBFB1648FFF775FA10B1154800F0D4FBCB
:101FA000089408A911480994FFF778F810B110486F
:101FB00000F0CAFB0120CDE90040029404226946EA
:101FC0000A480394FFF7D0F910B1094800F0BCFBB0
:101FD0000C2269460548FFF7C7F9002802D00448DB
:101FE00000F0B2FB0AB010BD000400406400002005
:101FF0008405000810B596B000240F941094119435
:10200000129413941C2108A81494FEF7C4F82021FC
:102010006846FEF7C0F82C482A4901600121C0E952
:1020200001144FF46171C0E9031444618461FFF746
:102030008FF810B1254800F087FB4FF480500F90C7
:102040000FA92148FFF712F910B1204800F07CFBDE
:102050001D48FFF7D8FB10B11C4800F075FB139426
:1020600013A919481494FFF719F810B1174800F094
:102070006BFB602008904FF4E170CDE909040B94EC
:102080000C940D94042208A90F480E94FFF753FBFB
:1020900010B10E4800F058FB00944FF40050CDE909
:1020A0000440029401940394694607480794FEF79C
:1020B000CBFF10B1054800F047FB0348FFF7DCFAFF
:1020C00016B010BD00340140A400002084050008B3
:1020D000FEE770477047704710B5FEF70FFCBDE88C
:1020E0001040FEF7ABBF000030B58FB02821684626
:1020F000FEF751F814210AA8FEF74DF80121080453
:10210000CDE900100024029402250491CDE9075086
:102110004FF4E01009906846FEF792FD10B10B48AD
:1021200000F012FB0F20CDE90A054FF48060CDE9E5
:102130000C4002210AA80E94FEF796FC002802D05B
:10214000024800F001FB0FB030BD0000840500081C
:102150000D48016841F00101016041680B4A1140DE
:10216000416001680A4A11400160016821F4802140
:102170000160416821F4FE0141604FF41F0181605C
:102180000449C00308607047001002400000FFF8D7
:10219000FFFFF6FE08ED00E00148FFF7B9B90000C7
:1021A00064000020F0B502681C4B1D4D1D4E1E4FF3
:1021B0001E4C4FF0804C984209D0A04207D0604599
:1021C00005D0A84203D0B04201D0B84204D122F0D9
:1021D000700E4A6842EA0E02984209D0A04207D027
:1021E000604505D0A84203D0B04201D0B84203D127
:1021F00022F44075CA682A434D6922F080022A43BE
:1022000002608A68C2620A688262984201D0A04273
:1022100001D10969016301214161F0BD002C014038
:102220000004004000080040000C00400034014061
:1022300010B501F01F030121046A99408C43046228
:10224000016A9A401143016210BD10B501F01F03ED
:102250000421046A99408C430462016A9A40114344
:10226000016210BD10B5846842EA032224F47F4461
:102270000A432243826010BD826822F070020A4342
:1022800042F0070181607047F0B5026A22F0010256
:102290000262036A42688469124E24F073050C6876
:1022A0002C4323F002058B682B430D4DA84201D02F
:1022B000B04205D123F00807CB683B4323F0040369
:1022C000A84201D0B04205D14D6922F440721543B5
:1022D0008A692A4342608461496841630362F0BDB0
:1022E000002C014000340140F0B5026A22F01002D7
:1022F0000262026A436884690D6824F4E64444EA91
:1023000005248D6822F0200242EA05120F4D104E7E
:10231000A84201D0B04206D1CF6822F0800242EA42
:10232000071222F04002A84201D0B04207D14D6905
:1023300023F4406343EA85038D6943EA85034360E0
:102340008461496881630262F0BD0000002C014095
:1023500000340140F0B5026A22F480720262026A1F
:102360004368C46922F4007224F073050C68124EAD
:102370002C438D6842EA05220E4DA84201D0B0429E
:1023800006D1CF6822F4006242EA072222F480627A
:10239000A84201D0B04207D14D6923F4405343EA2B
:1023A00005138D6943EA05134360C4614968C1633D
:1023B0000262F0BD002C01400034014030B5026AD9
:1023C00022F480520262046A4268C3690D6823F4F1
:1023D000E64343EA05238D6824F4005444EA0534B7
:1023E000084DA84202D0084DA84204D14D6922F4FC
:1023F000804242EA85124260C36149680164046216
:1024000030BD0000002C01400034014010B5036ACB
:10241000046A24F001040462846924F0F00444EAAC
:10242000021423F00A020A438461026210BD000014
:1024300070B5046A24F0010404628469056A124ECE
:10244000B0420ED0114EB0420BD0B0F1804F08D048
:102450000F4EB04205D00F4EB04202D00E4EB042E9
:1024600003D124F00304144301E044F001041A07EB
:1024700024F0F00444EA126225F00A0301F00A0194
:1024800019438261016270BD002C0140003401409B
:102490000004004000080040000C004010B5036A32
:1024A00023F0100303628369046A23F4704343EA50
:1024B000023224F0A00343EA01118261016210BDDF
:1024C00030B5046A24F0100404628469056A24F4B7
:1024D000407444EA022222F470444FF6FF7202EA8A
:1024E00003322243A02425F0A00304EA011119437A
:1024F0008261016230BD10B5406A0021C185C1848E
:10250000FFF7F0F910BD0168CA6822F49072CA6042
:1025100001684A6922F001024A61202180F83A10DC
:10252000704710B590F83A10222901D0022010BD52
:102530008168B1F5805F11D00169002901681FD061
:10254000496801F07F03816A4A1C82620B70C18D69
:10255000491E0904090CC18518D02BE00269816A63
:10256000002A0268526805D0D2B20A80816A491CEA
:102570008162ECE7C2F308020A80816A891CF7E7EE
:102580004A68816A4B1C83620A70E0E70168CA6886
:1025900022F02002CA600168CA6822F48072CA6010
:1025A00001684A6922F001024A61202180F83A104C
:1025B000FFF7BCFA002010BD2DE9F0410446006889
:1025C0000169E26821F44051114301612169A06869
:1025D0000843616908432168CA6841F20C639A4361
:1025E0000243CA6020684169A26921F44071114325
:1025F00041611E49206864253226884202D1FEF7D7
:10260000D9FA01E0FEF7C6FA00EBC00101EB0011B8
:1026100060686FF018078000B1FBF0F2B2FBF5F2D2
:10262000B1FBF0F37A4303EB8202B1FBF0F306EB6C
:102630000212B2FBF5F2B3FBF5F302F0F00202EB8B
:102640000312B1FBF0F3B1FBF0F0B0FBF5F078430F
:1026500003EB800006EB0010B0FBF5F0216800F002
:102660000F0010448860BDE8F08100000038014090
:1026700090F83910212901D0022070478168B1F506
:10268000805F016A0BD04A1C0262026809785160BF
:10269000C18C491E0904090CC1840ED017E00988B9
:1026A0000268C1F30801516001690029016A02D082
:1026B000491C0162ECE7891CFBE70168CA6822F04B
:1026C0008002CA600068C16841F04001C16000201A
:1026D00070472DE9F041984617460E460446069D80
:1026E0001DE0681C1BD02DB1FEF702F9A0EB08001D
:1026F000A84214D92068C16821F4D071C160206853
:10270000416921F001014161202084F8390084F8F9
:102710003A00002084F838000320BDE8F0812068EA
:10272000006836EA000004D00020B842D9D000206A
:10273000F3E70120F9E700000148FFF7D5B80000F2
:1027400024010020FEE70000014A024900F023B8FE
:10275000B9270008200000200907090E002804DB23
:1027600000F1E02080F80014704700F00F0000F145
:10277000E02080F8141D704702E008C8121F08C14D
:10278000002AFAD170477047002001E001C1121FF2
:10279000002AFBD170472DE9F04116460F4604464A
:1027A000002503E03946B047641C6D1C20780028E2
:1027B000F8D12846BDE8F08113B54FF6FF7301222A
:1027C00069460248FFF7B3F900981CBDE4000020F9
:1027D000FEF79CF8FFF788FCFFF73AFAFFF7ECFAF0
:1027E000FFF740FBFFF7ACFB2948FEF72DFDFFF795
:1027F00001FC2748274980304FF4E135002401606F
:10280000C0E901540C26C460C0E904468461C46177
:10281000FFF7F2F810B12048FFF796FF1C481F4958
:10282000C0300160C0E90154C460C0E9044684615D
:10283000C461FFF7E1F810B11748FFF785FF1448AE
:102840004038FEF701FD04211148FEF736FE002254
:1028500002210120FFF758FA022100220846FFF763
:1028600053FA0F49012008700EA0FFF76DFF642690
:102870000F4CF500FFF70AFA012801D12068066025
:10288000FFF722FA0128F5D120680560F2E7000081
:102890006400002000380140840500080048004022
:1028A00000000020BDF8C8EBD1ADBBB70A000000A6
:1028B0000C000020000000000000000001020304E2
:1028C000060708090000000001020304EC280008C4
:1028D00000000020240000007827000810290008CC
:1028E000240000206C05000088270008000000007C
:1028F000C800000000000000680100200100000086
:1029000010000000000000000024F400000000009F
:0400000508000131BD
:00000001FF
